:020000040800F2
:100000000050002009080008990700089F07000811
:10001000A5070008AB070008B107000800000000B2
:10002000000000000000000000000000B70700080A
:10003000C307000800000000CF070008DB07000826
:10004000510800085108000851080008510800082C
:10005000510800085108000851080008510800081C
:10006000510800085108000851080008510800080C
:1000700051080008510800085108000851080008FC
:1000800051080008510800085108000851080008EC
:1000900051080008510800085108000851080008DC
:1000A00051080008510800085108000851080008CC
:1000B000E907000851080008510800085108000825
:1000C00051080008510800085108000851080008AC
:1000D000510800085108000851080008510800089C
:1000E00051080008510800085108000800000000ED
:1000F0000000000000000000000000000000000000
:0C01000000000000000000005FF808F1A3
:10010C0010B5054C237833B9044B13B10448AFF345
:10011C0000800123237010BD0C00002000000000A3
:10012C00B01E000808B5034B1BB103490348AFF3DD
:10013C00008008BD0000000010000020B01E000868
:10014C0080B58CB006AF00F07FFB0023FB75384602
:10015C004023049320230393102302930823019339
:10016C000423009302230122344900F077FA00F0B3
:10017C006FF800F0F5F800F0A7F8314801F0B8FA84
:10018C003221304800F092FA64212F4800F08EFAA8
:10019C002D4B1B78002B07D120212C4800F060FE42
:1001AC006421294800F082FAFB7D002B02D0012B40
:1001BC001AD033E000224021244800F039FE0122FD
:1001CC008021224800F034FE3B460121184600F005
:1001DC0079F91C4B1B78002B2BD10123FB75322199
:1001EC00184800F063FA24E001224021174800F07F
:1001FC001FFE00228021154800F01AFE3B4602210A
:10020C00184600F05FF90F4B1B78002B13D100231D
:10021C00FB7532210B4800F049FA0CE0002240211A
:10022C000A4800F005FE00228021084800F000FE7C
:10023C0002E000BFACE700BFAAE700BF000C014022
:10024C0028000020700000207800002000080140E9
:10025C0080B590B000AF07F1180328220021184692
:10026C0001F0F4FD3B1D00221A605A609A60DA60BE
:10027C001A610223BB610123BB621023FB620023C2
:10028C007B6307F11803184600F004FE0346002BAD
:10029C0001D000F0C9F80F237B600023BB60002362
:1002AC00FB6000233B6100237B613B1D0021184652
:1002BC0001F072F80346002B01D000F0B5F800BF36
:1002CC004037BD4680BD000080B586B000AF07F159
:1002DC00080300221A605A609A60DA603B460022DA
:1002EC001A605A601D4B4FF080421A601B4B40F253
:1002FC001F325A60194B00229A60184B6322DA6045
:10030C00164B00221A61154B00229A61134801F01A
:10031C009FF90346002B01D000F086F84FF4805370
:10032C00BB6007F1080319460C4801F03BFB034680
:10033C00002B01D000F078F800233B6000237B6099
:10034C003B461946054801F011FD0346002B01D030
:10035C0000F06AF800BF1837BD4680BD28000020A9
:10036C0080B586B000AF07F1080300221A605A600E
:10037C009A60DA60204B9B691F4A43F00403936137
:10038C001D4B9B6903F004037B607B681A4B9B69D4
:10039C00194A43F008039361174B9B6903F0080358
:1003AC003B603B680022F021144800F041FD002224
:1003BC007F21134800F03CFDF023BB600123FB6060
:1003CC0000233B6102237B6107F1080319460B48AC
:1003DC0000F0AAFB7F23BB600123FB6000233B6181
:1003EC0002237B6107F108031946054800F09CFBCA
:1003FC0000BF1837BD4680BD001002400008014008
:10040C00000C014080B582B000AF7860044800F069
:10041C005DF9044800F05AF900BF0837BD4680BDAD
:10042C00700000207800002080B400AF72B600BFCE
:10043C00FEE780B582B000AF7860084611461A46D8
:10044C000346FB700B46BB7013467B707B681868C9
:10045C007B689B88FA78194600F0EAFC7B68186880
:10046C007B68DB88BA78194600F0E2FC7B68186878
:10047C007B681B897A78194600F0DAFC7B6818686F
:10048C007B685B893A7C194600F0D2FC7B68186863
:10049C007B689B893A7D194600F0CAFC7B6818681A
:1004AC007B68DB893A7E194600F0C2FC7B681868D1
:1004BC007B681B8A3A7F194600F0BAFC00BF0837EC
:1004CC00BD4680BD80B586B004AF78600B467B809E
:1004DC007B88092B00F2AE8001A252F823F000BFFA
:1004EC001505000833050008510500086F050008C4
:1004FC008D050008AB050008C9050008E7050008D4
:10050C000506000823060008012303930023029329
:10051C00002301930023009300230022002178681C
:10052C00FFF787FF95E00123039301230293012337
:10053C000193012300930023002201217868FFF727
:10054C0078FF86E000230393012302930023019399
:10055C00002300930123002200217868FFF769FF34
:10056C0077E00023039301230293012301930023DB
:10057C0000930023002200217868FFF75AFF68E0FF
:10058C00002303930023029301230193012300937F
:10059C000023002201217868FFF74BFF59E000236C
:1005AC000393002302930123019300230093002360
:1005BC00012200217868FFF73CFF4AE000230393F7
:1005CC0000230293002301930023009300230122B4
:1005DC0000217868FFF72DFF3BE0012303930123F3
:1005EC000293012301930123009300230022002195
:1005FC007868FFF71EFF2CE000230393002302937F
:10060C00002301930023009300230022002178682B
:10061C00FFF70FFF1DE00023039300230293012338
:10062C000193002300930023002200217868FFF738
:10063C0000FF0EE001230393012302930123019396
:10064C00012300930123012201217868FFF7F1FEB9
:10065C0000BF00BF0837BD4680BD00BF80B485B069
:10066C0000AFF860B96011461A460B46FB80134682
:10067C00BB80FB68BA681A60FB68FA889A80FB68D2
:10068C00BA88DA80FB683A8B1A81FB68BA8B5A817C
:10069C00FB683A8C9A81FB68BA8CDA81FB683A8DDC
:1006AC001A8200BF1437BD4680BC704780B483B03B
:1006BC0000AF786039607B683A685A607B680122C9
:1006CC001A7000BF0C37BD4680BC704780B483B035
:1006DC0000AF78607B685B68002B0BD07B685B6835
:1006EC005A1E7B685A607B685B68002B02D17B6862
:1006FC0000221A7000BF0C37BD4680BC704700004A
:10070C0080B483B000AF0E4B9B690D4A43F00103DC
:10071C0093610B4B9B6903F001037B607B68084B77
:10072C00DB69074A43F08053D361054BDB6903F067
:10073C0080533B603B6800BF0C37BD4680BC7047A4
:10074C000010024080B584B000AF78607B681B68F5
:10075C00B3F1804F13D10C4BDB690B4A43F001030F
:10076C00D361094BDB6903F00103FB60FB680022DA
:10077C0000211C2000F0A1F91C2000F0BAF900BFE8
:10078C001037BD4680BD00BF0010024080B400AFE2
:10079C00FEE780B400AFFEE780B400AFFEE780B4A4
:1007AC0000AFFEE780B400AFFEE780B400AF00BF3F
:1007BC00BD4680BC704780B400AF00BFBD4680BC56
:1007CC00704780B400AF00BFBD4680BC704780B599
:1007DC0000AF00F07FF800BF80BD000080B500AF17
:1007EC00024800F0D7FF00BF80BD00BF28000020EA
:1007FC0080B400AF00BFBD4680BC7047FFF7F8FF68
:10080C000B480C490C4A002302E0D458C450043362
:10081C00C4188C42F9D3094A094C002301E0136037
:10082C000432A242FBD301F019FBFFF789FC70479D
:10083C00000000200C000020F41E00080C0000201A
:10084C0084000020FEE7000080B500AF084B1B6859
:10085C00074A43F010031360032000F023F90F2024
:10086C0000F008F8FFF74CFF0023184680BD00BFCE
:10087C000020024080B582B000AF7860124B1A683D
:10088C00124B1B7819464FF47A73B3FBF1F3B2FB9E
:10089C00F3F3184600F03BF90346002B01D001237B
:1008AC000EE07B680F2B0AD8002279684FF0FF30DE
:1008BC0000F003F9064A7B681360002300E0012373
:1008CC0018460837BD4680BD0000002008000020F7
:1008DC000400002080B400AF054B1B781A46054B72
:1008EC001B681344034A136000BFBD4680BC7047AD
:1008FC00080000208000002080B400AF024B1B6871
:10090C001846BD4680BC70478000002080B485B07E
:10091C0000AF78607B6803F00703FB600C4BDB686F
:10092C00BB60BA684FF6FF031340BB60FB681A024A
:10093C00BB68134343F0BF6343F40033BB60044A0A
:10094C00BB68D36000BF1437BD4680BC704700BF86
:10095C0000ED00E080B400AF044BDB681B0A03F031
:10096C0007031846BD4680BC704700BF00ED00E091
:10097C0080B483B000AF0346FB7197F90730002BAE
:10098C000BDBFB7903F01F02064997F907305B0973
:10099C00012000FA02F241F8232000BF0C37BD46BB
:1009AC0080BC704700E100E080B483B000AF034628
:1009BC003960FB7197F90730002B0ADB3B68DAB220
:1009CC000C4997F907301201D2B20B4483F800237B
:1009DC000AE03B68DAB20849FB7903F00F03043BE9
:1009EC001201D2B20B441A7600BF0C37BD4680BC44
:1009FC00704700BF00E100E000ED00E080B489B07A
:100A0C0000AFF860B9607A60FB6803F00703FB6124
:100A1C00FB69C3F10703042B28BF0423BB61FB69EB
:100A2C000433062B02D9FB69033B00E000237B61F6
:100A3C004FF0FF32BB6902FA03F3DA43BB681A408A
:100A4C007B699A404FF0FF317B6901FA03F3D9437C
:100A5C007B680B40134318462437BD4680BC704757
:100A6C0080B582B000AF78607B68013BB3F1807FCA
:100A7C0001D301230FE00A4A7B68013B53600F212D
:100A8C004FF0FF30FFF790FF054B00229A60044BAC
:100A9C0007221A60002318460837BD4680BD00BFE8
:100AAC0010E000E080B582B000AF78607868FFF7A6
:100ABC002DFF00BF0837BD4680BD80B586B000AFA6
:100ACC000346B9607A60FB7300237B61FFF742FF3A
:100ADC0078617A68B9687869FFF790FF024697F9F0
:100AEC000F3011461846FFF75FFF00BF1837BD46A1
:100AFC0080BD80B582B000AF0346FB7197F907301B
:100B0C001846FFF735FF00BF0837BD4680BD80B5DE
:100B1C0082B000AF78607868FFF7A2FF03461846F2
:100B2C000837BD4680BD000080B48BB000AF786044
:100B3C00396000237B6200233B6269E101227B6AFE
:100B4C0002FA03F3FB613B681B68FA691340BB6153
:100B5C00BA69FB699A4240F058813B685B689A4AD3
:100B6C0093425ED0984A934275D8984A934258D093
:100B7C00964A93426FD8964A934252D0944A9342E3
:100B8C0069D8944A93424CD0924A934263D8924A81
:100B9C00934246D0904A93425DD8122B2AD8122BFE
:100BAC0059D801A252F823F02F0C0008090C0008A8
:100BBC001B0C00085D0C0008630C0008630C00089B
:100BCC00630C0008630C0008630C0008630C00083D
:100BDC00630C0008630C0008630C0008630C00082D
:100BEC00630C0008630C0008630C0008110C00086F
:100BFC00250C0008794A934213D02CE03B68DB6843
:100C0C003B6229E03B68DB6804333B6224E03B68D1
:100C1C00DB6808333B621FE03B68DB680C333B62EC
:100C2C001AE03B689B68002B02D104233B6213E063
:100C3C003B689B68012B05D108233B627B68FA69F2
:100C4C001A6109E008233B627B68FA695A6103E088
:100C5C0000233B6200E000BFBB69FF2B01D87B681F
:100C6C0001E07B6804337B61BB69FF2B02D87B6A94
:100C7C009B0002E07B6A083B9B003B617B691A6826
:100C8C000F213B6901FA03F3DB431A40396A3B69D4
:100C9C0001FA03F31A437B691A603B685B6803F043
:100CAC008053002B00F0B1804D4B9B694C4A43F0B4
:100CBC00010393614A4B9B6903F00103BB60BB6862
:100CCC00484A7B6A9B08023352F82330FB607B6AEC
:100CDC0003F003039B000F2202FA03F3DB43FA68D1
:100CEC001340FB607B68404A934213D07B683F4AB9
:100CFC0093420DD07B683E4A934207D07B683D4AB5
:100D0C00934201D1032306E0042304E0022302E012
:100D1C00012300E000237A6A02F003029200934060
:100D2C00FA681343FB602F497B6A9B080233FA680D
:100D3C0041F823203B685B6803F48013002B06D03A
:100D4C002D4B9A682C49BB6913438B6006E02A4BE8
:100D5C009A68BB69DB43284913408B603B685B682E
:100D6C0003F40013002B06D0234BDA682249BB692D
:100D7C001343CB6006E0204BDA68BB69DB431E49AA
:100D8C001340CB603B685B6803F40033002B06D048
:100D9C00194B5A681849BB6913434B6006E0164B54
:100DAC005A68BB69DB43144913404B603B685B6872
:100DBC0003F48033002B21D00F4B1A680E49BB690A
:100DCC0013430B6021E000BF000032100000311013
:100DDC000000221000002110000012100000111061
:100DEC00001002400000014000080140000C0140CE
:100DFC000010014000140140000401400B4B1A6824
:100E0C00BB69DB43094913400B607B6A01337B628E
:100E1C003B681A687B6A22FA03F3002B7FF48EAED0
:100E2C0000BF00BF2C37BD4680BC7047000401409A
:100E3C0080B483B000AF78600B467B8013467B7028
:100E4C007B78002B03D07A887B681A6103E07B885F
:100E5C001A047B681A6100BF0C37BD4680BC704712
:100E6C0080B485B000AF78600B467B807B68DB6814
:100E7C00FB607A88FB6813401A04FB68D9437B88B3
:100E8C000B401A437B681A6100BF1437BD4680BC07
:100E9C007047000080B586B000AF78607B68002B8F
:100EAC0001D1012372E27B681B6803F00103002B64
:100EBC0000F08780924B5B6803F00C03042B0CD082
:100ECC008F4B5B6803F00C03082B12D18C4B5B68C7
:100EDC0003F48033B3F5803F0BD1894B1B6803F4CB
:100EEC000033002B6CD07B685B68002B68D101232E
:100EFC004CE27B685B68B3F5803F06D1804B1B6886
:100F0C007F4A43F4803313602EE07B685B68002BD0
:100F1C000CD17B4B1B687A4A23F480331360784BDB
:100F2C001B68774A23F4802313601DE07B685B68A1
:100F3C00B3F5A02F0CD1724B1B68714A43F480237C
:100F4C0013606F4B1B686E4A43F4803313600BE0E5
:100F5C006B4B1B686A4A23F480331360684B1B6825
:100F6C00674A23F4802313607B685B68002B13D0E3
:100F7C00FFF7C2FC386108E0FFF7BEFC02463B6994
:100F8C00D31A642B01D9032300E25D4B1B6803F4D5
:100F9C000033002BF0D014E0FFF7AEFC386108E012
:100FAC00FFF7AAFC02463B69D31A642B01D9032331
:100FBC00ECE1534B1B6803F40033002BF0D100E041
:100FCC0000BF7B681B6803F00203002B63D04C4B03
:100FDC005B6803F00C03002B0BD0494B5B6803F0F0
:100FEC000C03082B1CD1464B5B6803F48033002B9D
:100FFC0016D1434B1B6803F00203002B05D07B6812
:10100C001B69012B01D00123C0E13D4B1B6823F070
:10101C00F8027B685B69DB00394913430B603AE0EB
:10102C007B681B69002B20D0364B01221A60FFF71E
:10103C0063FC386108E0FFF75FFC02463B69D31A9A
:10104C00022B01D90323A1E12D4B1B6803F00203F2
:10105C00002BF0D02A4B1B6823F0F8027B685B69ED
:10106C00DB00274913430B6015E0264B00221A6066
:10107C00FFF742FC386108E0FFF73EFC02463B6993
:10108C00D31A022B01D9032380E11D4B1B6803F0FB
:10109C000203002BF0D17B681B6803F00803002BC4
:1010AC003AD07B689B69002B19D0174B01221A6030
:1010BC00FFF722FC386108E0FFF71EFC02463B6993
:1010CC00D31A022B01D9032360E10D4B5B6A03F0A9
:1010DC000203002BF0D0012000F09CFA1CE00A4B1C
:1010EC0000221A60FFF708FC38610FE0FFF704FCE0
:1010FC0002463B69D31A022B08D9032346E100BFF1
:10110C00001002400000424280044242924B5B6A53
:10111C0003F00203002BE9D17B681B6803F0040386
:10112C00002B00F0A6800023FB758B4BDB6903F0D2
:10113C008053002B0DD1884BDB69874A43F08053D9
:10114C00D361854BDB6903F08053BB60BB68012323
:10115C00FB75824B1B6803F48073002B18D17F4BFB
:10116C001B687E4A43F480731360FFF7C5FB38613C
:10117C0008E0FFF7C1FB02463B69D31A642B01D987
:10118C00032303E1754B1B6803F48073002BF0D031
:10119C007B68DB68012B06D16F4B1B6A6E4A43F0F0
:1011AC00010313622DE07B68DB68002B0CD16A4BCA
:1011BC001B6A694A23F001031362674B1B6A664A78
:1011CC0023F0040313621CE07B68DB68052B0CD155
:1011DC00614B1B6A604A43F0040313625E4B1B6A4B
:1011EC005D4A43F0010313620BE05B4B1B6A5A4AE6
:1011FC0023F001031362584B1B6A574A23F0040374
:10120C0013627B68DB68002B15D0FFF775FB386128
:10121C000AE0FFF771FB02463B69D31A41F28832B0
:10122C00934201D90323B1E04B4B1B6A03F0020339
:10123C00002BEED014E0FFF75FFB38610AE0FFF7FC
:10124C005BFB02463B69D31A41F28832934201D9C7
:10125C0003239BE0404B1B6A03F00203002BEED1EF
:10126C00FB7D012B05D13C4BDB693B4A23F08053C2
:10127C00D3617B68DB69002B00F08780364B5B68A1
:10128C0003F00C03082B61D07B68DB69022B46D181
:10129C00334B00221A60FFF72FFB386108E0FFF791
:1012AC002BFB02463B69D31A022B01D903236DE0B9
:1012BC00294B1B6803F00073002BF0D17B681B6A71
:1012CC00B3F5803F08D1244B5B6823F400327B6874
:1012DC009B68214913434B601F4B5B6823F47412CA
:1012EC007B68196A7B685B6A0B431B4913434B6031
:1012FC001B4B01221A60FFF7FFFA386108E0FFF779
:10130C00FBFA02463B69D31A022B01D903233DE0B9
:10131C00114B1B6803F00073002BF0D035E0104B21
:10132C0000221A60FFF7E8FA386108E0FFF7E4FAE8
:10133C0002463B69D31A022B01D9032326E0064B44
:10134C001B6803F00073002BF0D11EE07B68DB6997
:10135C00012B07D1012319E000100240007000405E
:10136C00600042420B4B5B68FB60FB6803F480320D
:10137C007B681B6A9A4206D1FB6803F470127B6887
:10138C005B6A9A4201D0012300E00023184618370B
:10139C00BD4680BD0010024080B584B000AF7860BF
:1013AC0039607B68002B01D10123D0E06A4B1B68AC
:1013BC0003F007033A689A4210D9674B1B6823F075
:1013CC00070265493B6813430B60634B1B6803F0D2
:1013DC0007033A689A4201D00123B8E07B681B6886
:1013EC0003F00203002B20D07B681B6803F004037E
:1013FC00002B05D0594B5B68584A43F4E0635360AB
:10140C007B681B6803F00803002B05D0534B5B680B
:10141C00524A43F460535360504B5B6823F0F00224
:10142C007B689B684D4913434B607B681B6803F0DA
:10143C000103002B40D07B685B68012B07D1474B25
:10144C001B6803F40033002B15D101237FE07B686C
:10145C005B68022B07D1414B1B6803F00073002B18
:10146C0009D1012373E03D4B1B6803F00203002BF1
:10147C0001D101236BE0394B5B6823F003027B68DD
:10148C005B68364913434B60FFF736FAF8600AE0A5
:10149C00FFF732FA0246FB68D31A41F288329342C4
:1014AC0001D9032353E02D4B5B6803F00C027B68DE
:1014BC005B689B009A42EBD1274B1B6803F0070338
:1014CC003A689A4210D2244B1B6823F00702224937
:1014DC003B6813430B60204B1B6803F007033A680F
:1014EC009A4201D0012332E07B681B6803F00403AD
:1014FC00002B08D0194B5B6823F4E0627B68DB6837
:10150C00164913434B607B681B6803F00803002BE0
:10151C0009D0124B5B6823F460527B681B69DB00BB
:10152C000E4913434B6000F021F802460B4B5B68ED
:10153C001B0903F00F030A49CB5C22FA03F3094A97
:10154C001360094B1B681846FFF794F900231846E3
:10155C001037BD4680BD00BF002002400010024085
:10156C00C81E0008000000200400002080B487B0D2
:10157C0000AF0023FB600023BB6000237B610023D2
:10158C007B6000233B611E4B5B68FB60FB6803F0D8
:10159C000C03042B02D0082B03D027E0194B3B6122
:1015AC0027E0FB689B0C03F00F03174AD35C7B60AE
:1015BC00FB6803F48033002B10D0114B5B685B0C81
:1015CC0003F00103114AD35CBB607B680D4A03FB3B
:1015DC0002F2BB68B2FBF3F37B6104E07B680C4A5C
:1015EC0002FB03F37B617B693B6102E0054B3B61D2
:1015FC0000BF3B6918461C37BD4680BC704700BF16
:10160C000010024000127A00D81E0008E81E0008E4
:10161C0000093D0080B485B000AF78600A4B1B68B0
:10162C000A4AA2FB03235B0A7A6802FB03F3FB6002
:10163C0000BFFB685A1EFA60002BF9D100BF00BF37
:10164C001437BD4680BC704700000020D34D62109B
:10165C0080B582B000AF78607B68002B01D101238C
:10166C0041E07B6893F83D30DBB2002B06D17B6800
:10167C00002283F83C207868FFF764F87B6802222C
:10168C0083F83D207B681A687B6804331946104642
:10169C0000F074FA7B68012283F846207B680122F3
:1016AC0083F83E207B68012283F83F207B6801226F
:1016BC0083F840207B68012283F841207B6801225B
:1016CC0083F842207B68012283F843207B68012247
:1016DC0083F844207B68012283F845207B68012233
:1016EC0083F83D20002318460837BD4680BD000016
:1016FC0080B485B000AF78607B6893F83D30DBB286
:10170C00012B01D001233AE07B68022283F83D20B3
:10171C007B681B68DA687B681B6842F00102DA6040
:10172C007B681B68184A93420ED07B681B68B3F128
:10173C00804F09D07B681B68144A934204D07B68A5
:10174C001B68134A934211D17B681B689B6803F09A
:10175C000703FB60FB68062B10D07B681B681A68BC
:10176C007B681B6842F001021A6007E07B681B680B
:10177C001A687B681B6842F001021A600023184645
:10178C001437BD4680BC7047002C0140000400405B
:10179C000008004080B582B000AF78607B681B68A1
:1017AC001B6903F00203022B22D17B681B68DB68E8
:1017BC0003F00203022B1BD17B681B686FF0020243
:1017CC001A617B6801221A777B681B689B6903F09E
:1017DC000303002B03D0786800F0B4F905E07868B7
:1017EC0000F0A7F9786800F0B6F97B6800221A7748
:1017FC007B681B681B6903F00403042B22D17B68F4
:10180C001B68DB6803F00403042B1BD17B681B688B
:10181C006FF004021A617B6802221A777B681B68DE
:10182C009B6903F44073002B03D0786800F08AF9AD
:10183C0005E0786800F07DF9786800F08CF97B6839
:10184C0000221A777B681B681B6903F00803082BBE
:10185C0022D17B681B68DB6803F00803082B1BD1C3
:10186C007B681B686FF008021A617B6804221A7788
:10187C007B681B68DB6903F00303002B03D07868DB
:10188C0000F060F905E0786800F053F9786800F032
:10189C0062F97B6800221A777B681B681B6903F06E
:1018AC001003102B22D17B681B68DB6803F010033C
:1018BC00102B1BD17B681B686FF010021A617B68C0
:1018CC0008221A777B681B68DB6903F44073002BD2
:1018DC0003D0786800F036F905E0786800F029F953
:1018EC00786800F038F97B6800221A777B681B68EF
:1018FC001B6903F00103012B0ED17B681B68DB68AD
:10190C0003F00103012B07D17B681B686FF0010208
:10191C001A617868FEF776FD7B681B681B6903F01B
:10192C008003802B0ED17B681B68DB6803F080037F
:10193C00802B07D17B681B686FF080021A61786876
:10194C0000F07BFA7B681B681B6903F04003402B9B
:10195C000ED17B681B68DB6803F04003402B07D17A
:10196C007B681B686FF040021A61786800F0FCF825
:10197C007B681B681B6903F02003202B0ED17B684E
:10198C001B68DB6803F02003202B07D17B681B68E6
:10199C006FF020021A61786800F046FA00BF083731
:1019AC00BD4680BD80B584B000AF7860396000233F
:1019BC00FB737B6893F83C30012B01D10223B4E01C
:1019CC007B68012283F83C207B68022283F83D204F
:1019DC007B681B689B68BB60BB6823F07703BB60AC
:1019EC00BB6823F47F43BB607B681B68BA689A6052
:1019FC003B681B68B3F5005F3ED0B3F5005F00F2A7
:101A0C008780B3F5805F00F08680B3F5805F7FD868
:101A1C00702B1AD0702B7BD8602B50D0602B77D8C2
:101A2C00502B3CD0502B73D8402B58D0402B6FD818
:101A3C00302B64D0302B6BD8202B60D0202B67D868
:101A4C00002B5CD0102B5AD062E07B6818683B6886
:101A5C0099683B685A683B68DB6800F068F97B68FA
:101A6C001B689B68BB60BB6843F07703BB607B68FB
:101A7C001B68BA689A604FE07B6818683B68996885
:101A8C003B685A683B68DB6800F051F97B681B685F
:101A9C009A687B681B6842F480429A603CE07B68E1
:101AAC0018683B6859683B68DB681A4600F0C8F850
:101ABC007B681B685021184600F01FF92CE07B68EE
:101ACC0018683B6859683B68DB681A4600F0E6F812
:101ADC007B681B686021184600F00FF91CE07B68DE
:101AEC0018683B6859683B68DB681A4600F0A8F830
:101AFC007B681B684021184600F0FFF80CE07B68FF
:101B0C001A683B681B681946104600F0F6F803E0AB
:101B1C000123FB7300E000BF7B68012283F83D20AA
:101B2C007B68002283F83C20FB7B18461037BD46AF
:101B3C0080BD80B483B000AF786000BF0C37BD4669
:101B4C0080BC704780B483B000AF786000BF0C37A6
:101B5C00BD4680BC704780B483B000AF786000BFD6
:101B6C000C37BD4680BC704780B483B000AF786042
:101B7C0000BF0C37BD4680BC7047000080B485B0F8
:101B8C0000AF786039607B681B68FB607B68294A12
:101B9C0093420BD07B68B3F1804F07D07B68264A09
:101BAC00934203D07B68254A934208D1FB6823F00B
:101BBC007003FB603B685B68FA681343FB607B68EF
:101BCC001C4A93420BD07B68B3F1804F07D07B68E3
:101BDC00194A934203D07B68184A934208D1FB6898
:101BEC0023F44073FB603B68DB68FA681343FB60CB
:101BFC00FB6823F080023B685B691343FB607B68E6
:101C0C00FA681A603B689A687B68DA623B681A6803
:101C1C007B689A627B68074A934203D13B681A69D6
:101C2C007B681A637B6801225A6100BF1437BD467A
:101C3C0080BC7047002C01400004004000080040AC
:101C4C0080B487B000AFF860B9607A60FB681B6A3B
:101C5C007B61FB681B6A23F00102FB681A62FB685C
:101C6C009B693B613B6923F0F0033B617B681B0183
:101C7C003A6913433B617B6923F00A037B617A6900
:101C8C00BB6813437B61FB683A699A61FB687A69AC
:101C9C001A6200BF1C37BD4680BC704780B487B049
:101CAC0000AFF860B9607A60FB681B6A7B61FB6807
:101CBC001B6A23F01002FB681A62FB689B693B618C
:101CCC003B6923F470433B617B681B033A69134304
:101CDC003B617B6923F0A0037B61BB681B017A69C4
:101CEC0013437B61FB683A699A61FB687A691A62F3
:101CFC0000BF1C37BD4680BC704780B485B000AFB8
:101D0C00786039607B689B68FB60FB6823F070032C
:101D1C00FB603A68FB68134343F00703FB607B6886
:101D2C00FA689A6000BF1437BD4680BC704780B417
:101D3C0087B000AFF860B9607A603B60FB689B6865
:101D4C007B617B6923F47F437B613B681A027B6870
:101D5C001A43BB6813437A6913437B61FB687A6946
:101D6C009A6000BF1C37BD4680BC704780B485B0FC
:101D7C0000AF786039607B6893F83C30012B01D15F
:101D8C00022346E07B68012283F83C207B68022218
:101D9C0083F83D207B681B685B68FB607B681B6875
:101DAC009B68BB60FB6823F07003FB603B681B689F
:101DBC00FA681343FB607B681B68FA685A607B689F
:101DCC001B68164A93420ED07B681B68B3F1804F98
:101DDC0009D07B681B68124A934204D07B681B684D
:101DEC00104A93420CD1BB6823F08003BB603B6864
:101DFC005B68BA681343BB607B681B68BA689A60FF
:101E0C007B68012283F83D207B68002283F83C200C
:101E1C00002318461437BD4680BC7047002C014087
:101E2C00000400400008004080B483B000AF78602C
:101E3C0000BF0C37BD4680BC704780B483B000AF88
:101E4C00786000BF0C37BD4680BC70470346024427
:101E5C00934200D1704703F8011BF9E770B50026D7
:101E6C000C4D0D4C641BA410A64209D100F01AF8BD
:101E7C0000260A4D0A4C641BA410A64205D170BD65
:101E8C0055F8043B98470136EEE755F8043B984764
:101E9C000136F2E7EC1E0008EC1E0008EC1E0008F0
:101EAC00F01E0008F8B500BFF8BC08BC9E46704791
:0C1EBC00F8B500BFF8BC08BC9E4670479B
:101EC80000000000000000000102030406070809E2
:101ED80002030405060708090A0B0C0D0E0F101063
:041EE80001020000F3
:041EEC0031010008B8
:041EF0000D010008D8
:0C1EF4000024F4001000000001000000B9
:0400000508000809DE
:00000001FF
